{
  "_format": "hh-sol-artifact-1",
  "contractName": "DestripeCollection",
  "sourceName": "contracts/DestripeCollection.sol",
  "abi": [
    {
      "inputs": [
        {
          "internalType": "address",
          "name": "initialOwner",
          "type": "address"
        }
      ],
      "stateMutability": "nonpayable",
      "type": "constructor"
    },
    {
      "inputs": [
        {
          "internalType": "address",
          "name": "sender",
          "type": "address"
        },
        {
          "internalType": "uint256",
          "name": "tokenId",
          "type": "uint256"
        },
        {
          "internalType": "address",
          "name": "owner",
          "type": "address"
        }
      ],
      "name": "ERC721IncorrectOwner",
      "type": "error"
    },
    {
      "inputs": [
        {
          "internalType": "address",
          "name": "operator",
          "type": "address"
        },
        {
          "internalType": "uint256",
          "name": "tokenId",
          "type": "uint256"
        }
      ],
      "name": "ERC721InsufficientApproval",
      "type": "error"
    },
    {
      "inputs": [
        {
          "internalType": "address",
          "name": "approver",
          "type": "address"
        }
      ],
      "name": "ERC721InvalidApprover",
      "type": "error"
    },
    {
      "inputs": [
        {
          "internalType": "address",
          "name": "operator",
          "type": "address"
        }
      ],
      "name": "ERC721InvalidOperator",
      "type": "error"
    },
    {
      "inputs": [
        {
          "internalType": "address",
          "name": "owner",
          "type": "address"
        }
      ],
      "name": "ERC721InvalidOwner",
      "type": "error"
    },
    {
      "inputs": [
        {
          "internalType": "address",
          "name": "receiver",
          "type": "address"
        }
      ],
      "name": "ERC721InvalidReceiver",
      "type": "error"
    },
    {
      "inputs": [
        {
          "internalType": "address",
          "name": "sender",
          "type": "address"
        }
      ],
      "name": "ERC721InvalidSender",
      "type": "error"
    },
    {
      "inputs": [
        {
          "internalType": "uint256",
          "name": "tokenId",
          "type": "uint256"
        }
      ],
      "name": "ERC721NonexistentToken",
      "type": "error"
    },
    {
      "inputs": [
        {
          "internalType": "address",
          "name": "owner",
          "type": "address"
        }
      ],
      "name": "OwnableInvalidOwner",
      "type": "error"
    },
    {
      "inputs": [
        {
          "internalType": "address",
          "name": "account",
          "type": "address"
        }
      ],
      "name": "OwnableUnauthorizedAccount",
      "type": "error"
    },
    {
      "anonymous": false,
      "inputs": [
        {
          "indexed": true,
          "internalType": "address",
          "name": "owner",
          "type": "address"
        },
        {
          "indexed": true,
          "internalType": "address",
          "name": "approved",
          "type": "address"
        },
        {
          "indexed": true,
          "internalType": "uint256",
          "name": "tokenId",
          "type": "uint256"
        }
      ],
      "name": "Approval",
      "type": "event"
    },
    {
      "anonymous": false,
      "inputs": [
        {
          "indexed": true,
          "internalType": "address",
          "name": "owner",
          "type": "address"
        },
        {
          "indexed": true,
          "internalType": "address",
          "name": "operator",
          "type": "address"
        },
        {
          "indexed": false,
          "internalType": "bool",
          "name": "approved",
          "type": "bool"
        }
      ],
      "name": "ApprovalForAll",
      "type": "event"
    },
    {
      "anonymous": false,
      "inputs": [
        {
          "indexed": true,
          "internalType": "address",
          "name": "previousOwner",
          "type": "address"
        },
        {
          "indexed": true,
          "internalType": "address",
          "name": "newOwner",
          "type": "address"
        }
      ],
      "name": "OwnershipTransferred",
      "type": "event"
    },
    {
      "anonymous": false,
      "inputs": [
        {
          "indexed": true,
          "internalType": "address",
          "name": "from",
          "type": "address"
        },
        {
          "indexed": true,
          "internalType": "address",
          "name": "to",
          "type": "address"
        },
        {
          "indexed": true,
          "internalType": "uint256",
          "name": "tokenId",
          "type": "uint256"
        }
      ],
      "name": "Transfer",
      "type": "event"
    },
    {
      "inputs": [
        {
          "internalType": "address",
          "name": "to",
          "type": "address"
        },
        {
          "internalType": "uint256",
          "name": "tokenId",
          "type": "uint256"
        }
      ],
      "name": "approve",
      "outputs": [],
      "stateMutability": "nonpayable",
      "type": "function"
    },
    {
      "inputs": [],
      "name": "authorizedContract",
      "outputs": [
        {
          "internalType": "address",
          "name": "",
          "type": "address"
        }
      ],
      "stateMutability": "view",
      "type": "function"
    },
    {
      "inputs": [
        {
          "internalType": "address",
          "name": "owner",
          "type": "address"
        }
      ],
      "name": "balanceOf",
      "outputs": [
        {
          "internalType": "uint256",
          "name": "",
          "type": "uint256"
        }
      ],
      "stateMutability": "view",
      "type": "function"
    },
    {
      "inputs": [],
      "name": "baseUri",
      "outputs": [
        {
          "internalType": "string",
          "name": "",
          "type": "string"
        }
      ],
      "stateMutability": "view",
      "type": "function"
    },
    {
      "inputs": [
        {
          "internalType": "uint256",
          "name": "tokenId",
          "type": "uint256"
        }
      ],
      "name": "burn",
      "outputs": [],
      "stateMutability": "nonpayable",
      "type": "function"
    },
    {
      "inputs": [
        {
          "internalType": "uint256",
          "name": "tokenId",
          "type": "uint256"
        }
      ],
      "name": "getApproved",
      "outputs": [
        {
          "internalType": "address",
          "name": "",
          "type": "address"
        }
      ],
      "stateMutability": "view",
      "type": "function"
    },
    {
      "inputs": [],
      "name": "getLastTokenId",
      "outputs": [
        {
          "internalType": "uint256",
          "name": "",
          "type": "uint256"
        }
      ],
      "stateMutability": "view",
      "type": "function"
    },
    {
      "inputs": [
        {
          "internalType": "address",
          "name": "owner",
          "type": "address"
        },
        {
          "internalType": "address",
          "name": "operator",
          "type": "address"
        }
      ],
      "name": "isApprovedForAll",
      "outputs": [
        {
          "internalType": "bool",
          "name": "",
          "type": "bool"
        }
      ],
      "stateMutability": "view",
      "type": "function"
    },
    {
      "inputs": [
        {
          "internalType": "address",
          "name": "customer",
          "type": "address"
        }
      ],
      "name": "mint",
      "outputs": [
        {
          "internalType": "uint256",
          "name": "",
          "type": "uint256"
        }
      ],
      "stateMutability": "nonpayable",
      "type": "function"
    },
    {
      "inputs": [],
      "name": "name",
      "outputs": [
        {
          "internalType": "string",
          "name": "",
          "type": "string"
        }
      ],
      "stateMutability": "view",
      "type": "function"
    },
    {
      "inputs": [],
      "name": "owner",
      "outputs": [
        {
          "internalType": "address",
          "name": "",
          "type": "address"
        }
      ],
      "stateMutability": "view",
      "type": "function"
    },
    {
      "inputs": [
        {
          "internalType": "uint256",
          "name": "tokenId",
          "type": "uint256"
        }
      ],
      "name": "ownerOf",
      "outputs": [
        {
          "internalType": "address",
          "name": "",
          "type": "address"
        }
      ],
      "stateMutability": "view",
      "type": "function"
    },
    {
      "inputs": [],
      "name": "renounceOwnership",
      "outputs": [],
      "stateMutability": "nonpayable",
      "type": "function"
    },
    {
      "inputs": [
        {
          "internalType": "address",
          "name": "from",
          "type": "address"
        },
        {
          "internalType": "address",
          "name": "to",
          "type": "address"
        },
        {
          "internalType": "uint256",
          "name": "tokenId",
          "type": "uint256"
        }
      ],
      "name": "safeTransferFrom",
      "outputs": [],
      "stateMutability": "nonpayable",
      "type": "function"
    },
    {
      "inputs": [
        {
          "internalType": "address",
          "name": "from",
          "type": "address"
        },
        {
          "internalType": "address",
          "name": "to",
          "type": "address"
        },
        {
          "internalType": "uint256",
          "name": "tokenId",
          "type": "uint256"
        },
        {
          "internalType": "bytes",
          "name": "data",
          "type": "bytes"
        }
      ],
      "name": "safeTransferFrom",
      "outputs": [],
      "stateMutability": "nonpayable",
      "type": "function"
    },
    {
      "inputs": [
        {
          "internalType": "address",
          "name": "operator",
          "type": "address"
        },
        {
          "internalType": "bool",
          "name": "approved",
          "type": "bool"
        }
      ],
      "name": "setApprovalForAll",
      "outputs": [],
      "stateMutability": "nonpayable",
      "type": "function"
    },
    {
      "inputs": [
        {
          "internalType": "address",
          "name": "newAuthorizedContract",
          "type": "address"
        }
      ],
      "name": "setAuthorized",
      "outputs": [],
      "stateMutability": "nonpayable",
      "type": "function"
    },
    {
      "inputs": [
        {
          "internalType": "string",
          "name": "newBaseUri",
          "type": "string"
        }
      ],
      "name": "setBaseUri",
      "outputs": [],
      "stateMutability": "nonpayable",
      "type": "function"
    },
    {
      "inputs": [
        {
          "internalType": "bytes4",
          "name": "interfaceId",
          "type": "bytes4"
        }
      ],
      "name": "supportsInterface",
      "outputs": [
        {
          "internalType": "bool",
          "name": "",
          "type": "bool"
        }
      ],
      "stateMutability": "view",
      "type": "function"
    },
    {
      "inputs": [],
      "name": "symbol",
      "outputs": [
        {
          "internalType": "string",
          "name": "",
          "type": "string"
        }
      ],
      "stateMutability": "view",
      "type": "function"
    },
    {
      "inputs": [
        {
          "internalType": "uint256",
          "name": "tokenId",
          "type": "uint256"
        }
      ],
      "name": "tokenURI",
      "outputs": [
        {
          "internalType": "string",
          "name": "",
          "type": "string"
        }
      ],
      "stateMutability": "view",
      "type": "function"
    },
    {
      "inputs": [
        {
          "internalType": "address",
          "name": "from",
          "type": "address"
        },
        {
          "internalType": "address",
          "name": "to",
          "type": "address"
        },
        {
          "internalType": "uint256",
          "name": "tokenId",
          "type": "uint256"
        }
      ],
      "name": "transferFrom",
      "outputs": [],
      "stateMutability": "nonpayable",
      "type": "function"
    },
    {
      "inputs": [
        {
          "internalType": "address",
          "name": "newOwner",
          "type": "address"
        }
      ],
      "name": "transferOwnership",
      "outputs": [],
      "stateMutability": "nonpayable",
      "type": "function"
    }
  ],
  "bytecode": "0x60806040526040518060400160405280601b81526020017f68747470733a2f2f6c6f63616c686f7374333030302f6e6674732f00000000008152506009908161004891906104a4565b5034801561005557600080fd5b50604051613092380380613092833981810160405281019061007791906105d9565b806040518060400160405280600881526020017f44657374726970650000000000000000000000000000000000000000000000008152506040518060400160405280600381526020017f445350000000000000000000000000000000000000000000000000000000000081525081600090816100f391906104a4565b50806001908161010391906104a4565b505050600073ffffffffffffffffffffffffffffffffffffffff168173ffffffffffffffffffffffffffffffffffffffff16036101785760006040517f1e4fbdf700000000000000000000000000000000000000000000000000000000815260040161016f9190610615565b60405180910390fd5b6101878161018e60201b60201c565b5050610630565b6000600660009054906101000a900473ffffffffffffffffffffffffffffffffffffffff16905081600660006101000a81548173ffffffffffffffffffffffffffffffffffffffff021916908373ffffffffffffffffffffffffffffffffffffffff1602179055508173ffffffffffffffffffffffffffffffffffffffff168173ffffffffffffffffffffffffffffffffffffffff167f8be0079c531659141344cd1fd0a4f28419497f9722a3daafe3b4186f6b6457e060405160405180910390a35050565b600081519050919050565b7f4e487b7100000000000000000000000000000000000000000000000000000000600052604160045260246000fd5b7f4e487b7100000000000000000000000000000000000000000000000000000000600052602260045260246000fd5b600060028204905060018216806102d557607f821691505b6020821081036102e8576102e761028e565b5b50919050565b60008190508160005260206000209050919050565b60006020601f8301049050919050565b600082821b905092915050565b6000600883026103507fffffffffffffffffffffffffffffffffffffffffffffffffffffffffffffffff82610313565b61035a8683610313565b95508019841693508086168417925050509392505050565b6000819050919050565b6000819050919050565b60006103a161039c61039784610372565b61037c565b610372565b9050919050565b6000819050919050565b6103bb83610386565b6103cf6103c7826103a8565b848454610320565b825550505050565b600090565b6103e46103d7565b6103ef8184846103b2565b505050565b5b81811015610413576104086000826103dc565b6001810190506103f5565b5050565b601f82111561045857610429816102ee565b61043284610303565b81016020851015610441578190505b61045561044d85610303565b8301826103f4565b50505b505050565b600082821c905092915050565b600061047b6000198460080261045d565b1980831691505092915050565b6000610494838361046a565b9150826002028217905092915050565b6104ad82610254565b67ffffffffffffffff8111156104c6576104c561025f565b5b6104d082546102bd565b6104db828285610417565b600060209050601f83116001811461050e57600084156104fc578287015190505b6105068582610488565b86555061056e565b601f19841661051c866102ee565b60005b828110156105445784890151825560018201915060208501945060208101905061051f565b86831015610561578489015161055d601f89168261046a565b8355505b6001600288020188555050505b505050505050565b600080fd5b600073ffffffffffffffffffffffffffffffffffffffff82169050919050565b60006105a68261057b565b9050919050565b6105b68161059b565b81146105c157600080fd5b50565b6000815190506105d3816105ad565b92915050565b6000602082840312156105ef576105ee610576565b5b60006105fd848285016105c4565b91505092915050565b61060f8161059b565b82525050565b600060208201905061062a6000830184610606565b92915050565b612a538061063f6000396000f3fe608060405234801561001057600080fd5b506004361061014d5760003560e01c8063715018a6116100c3578063a22cb4651161007c578063a22cb4651461038a578063a6591cdf146103a6578063b88d4fde146103c4578063c87b56dd146103e0578063e985e9c514610410578063f2fde38b146104405761014d565b8063715018a6146102ec57806383c4c00d146102f65780638da5cb5b1461031457806395d89b41146103325780639abc832014610350578063a0bcfc7f1461036e5761014d565b806323b872dd1161011557806323b872dd1461020857806342842e0e1461022457806342966c68146102405780636352211e1461025c5780636a6278421461028c57806370a08231146102bc5761014d565b806301ffc9a71461015257806306fdde0314610182578063081812fc146101a0578063095ea7b3146101d057806314fc2812146101ec575b600080fd5b61016c60048036038101906101679190611d65565b61045c565b6040516101799190611dad565b60405180910390f35b61018a61053e565b6040516101979190611e58565b60405180910390f35b6101ba60048036038101906101b59190611eb0565b6105d0565b6040516101c79190611f1e565b60405180910390f35b6101ea60048036038101906101e59190611f65565b6105ec565b005b61020660048036038101906102019190611fa5565b610602565b005b610222600480360381019061021d9190611fd2565b61064e565b005b61023e60048036038101906102399190611fd2565b610750565b005b61025a60048036038101906102559190611eb0565b610770565b005b61027660048036038101906102719190611eb0565b610849565b6040516102839190611f1e565b60405180910390f35b6102a660048036038101906102a19190611fa5565b61085b565b6040516102b39190612034565b60405180910390f35b6102d660048036038101906102d19190611fa5565b610986565b6040516102e39190612034565b60405180910390f35b6102f4610a40565b005b6102fe610a54565b60405161030b9190612034565b60405180910390f35b61031c610a6a565b6040516103299190611f1e565b60405180910390f35b61033a610a94565b6040516103479190611e58565b60405180910390f35b610358610b26565b6040516103659190611e58565b60405180910390f35b610388600480360381019061038391906120b4565b610bb4565b005b6103a4600480360381019061039f919061212d565b610bd2565b005b6103ae610be8565b6040516103bb9190611f1e565b60405180910390f35b6103de60048036038101906103d9919061229d565b610c0e565b005b6103fa60048036038101906103f59190611eb0565b610c33565b6040516104079190611e58565b60405180910390f35b61042a60048036038101906104259190612320565b610c6d565b6040516104379190611dad565b60405180910390f35b61045a60048036038101906104559190611fa5565b610d01565b005b60007f80ac58cd000000000000000000000000000000000000000000000000000000007bffffffffffffffffffffffffffffffffffffffffffffffffffffffff1916827bffffffffffffffffffffffffffffffffffffffffffffffffffffffff1916148061052757507f5b5e139f000000000000000000000000000000000000000000000000000000007bffffffffffffffffffffffffffffffffffffffffffffffffffffffff1916827bffffffffffffffffffffffffffffffffffffffffffffffffffffffff1916145b80610537575061053682610d87565b5b9050919050565b60606000805461054d9061238f565b80601f01602080910402602001604051908101604052809291908181526020018280546105799061238f565b80156105c65780601f1061059b576101008083540402835291602001916105c6565b820191906000526020600020905b8154815290600101906020018083116105a957829003601f168201915b5050505050905090565b60006105db82610df1565b506105e582610e79565b9050919050565b6105fe82826105f9610eb6565b610ebe565b5050565b61060a610ed0565b80600860006101000a81548173ffffffffffffffffffffffffffffffffffffffff021916908373ffffffffffffffffffffffffffffffffffffffff16021790555050565b600073ffffffffffffffffffffffffffffffffffffffff168273ffffffffffffffffffffffffffffffffffffffff16036106c05760006040517f64a0ae920000000000000000000000000000000000000000000000000000000081526004016106b79190611f1e565b60405180910390fd5b60006106d483836106cf610eb6565b610f57565b90508373ffffffffffffffffffffffffffffffffffffffff168173ffffffffffffffffffffffffffffffffffffffff161461074a578382826040517f64283d7b000000000000000000000000000000000000000000000000000000008152600401610741939291906123c0565b60405180910390fd5b50505050565b61076b83838360405180602001604052806000815250610c0e565b505050565b600860009054906101000a900473ffffffffffffffffffffffffffffffffffffffff1673ffffffffffffffffffffffffffffffffffffffff163373ffffffffffffffffffffffffffffffffffffffff1614806107fe57506107cf610a6a565b73ffffffffffffffffffffffffffffffffffffffff163373ffffffffffffffffffffffffffffffffffffffff16145b61083d576040517f08c379a000000000000000000000000000000000000000000000000000000000815260040161083490612469565b60405180910390fd5b61084681611171565b50565b600061085482610df1565b9050919050565b6000600860009054906101000a900473ffffffffffffffffffffffffffffffffffffffff1673ffffffffffffffffffffffffffffffffffffffff163373ffffffffffffffffffffffffffffffffffffffff1614806108eb57506108bc610a6a565b73ffffffffffffffffffffffffffffffffffffffff163373ffffffffffffffffffffffffffffffffffffffff16145b61092a576040517f08c379a0000000000000000000000000000000000000000000000000000000008152600401610921906124fb565b60405180910390fd5b60006007600081548092919061093f9061254a565b91905055905061094f8382611188565b61097d83600860009054906101000a900473ffffffffffffffffffffffffffffffffffffffff1660016111a6565b80915050919050565b60008073ffffffffffffffffffffffffffffffffffffffff168273ffffffffffffffffffffffffffffffffffffffff16036109f95760006040517f89c62b640000000000000000000000000000000000000000000000000000000081526004016109f09190611f1e565b60405180910390fd5b600360008373ffffffffffffffffffffffffffffffffffffffff1673ffffffffffffffffffffffffffffffffffffffff168152602001908152602001600020549050919050565b610a48610ed0565b610a526000611315565b565b60006001600754610a659190612592565b905090565b6000600660009054906101000a900473ffffffffffffffffffffffffffffffffffffffff16905090565b606060018054610aa39061238f565b80601f0160208091040260200160405190810160405280929190818152602001828054610acf9061238f565b8015610b1c5780601f10610af157610100808354040283529160200191610b1c565b820191906000526020600020905b815481529060010190602001808311610aff57829003601f168201915b5050505050905090565b60098054610b339061238f565b80601f0160208091040260200160405190810160405280929190818152602001828054610b5f9061238f565b8015610bac5780601f10610b8157610100808354040283529160200191610bac565b820191906000526020600020905b815481529060010190602001808311610b8f57829003601f168201915b505050505081565b610bbc610ed0565b818160099182610bcd92919061277d565b505050565b610bda610ed0565b610be482826113db565b5050565b600860009054906101000a900473ffffffffffffffffffffffffffffffffffffffff1681565b610c1984848461064e565b610c2d610c24610eb6565b858585856113f1565b50505050565b6060610c3d6115a2565b610c4683611634565b604051602001610c579291906128af565b6040516020818303038152906040529050919050565b6000600560008473ffffffffffffffffffffffffffffffffffffffff1673ffffffffffffffffffffffffffffffffffffffff16815260200190815260200160002060008373ffffffffffffffffffffffffffffffffffffffff1673ffffffffffffffffffffffffffffffffffffffff16815260200190815260200160002060009054906101000a900460ff16905092915050565b610d09610ed0565b600073ffffffffffffffffffffffffffffffffffffffff168173ffffffffffffffffffffffffffffffffffffffff1603610d7b5760006040517f1e4fbdf7000000000000000000000000000000000000000000000000000000008152600401610d729190611f1e565b60405180910390fd5b610d8481611315565b50565b60007f01ffc9a7000000000000000000000000000000000000000000000000000000007bffffffffffffffffffffffffffffffffffffffffffffffffffffffff1916827bffffffffffffffffffffffffffffffffffffffffffffffffffffffff1916149050919050565b600080610dfd83611702565b9050600073ffffffffffffffffffffffffffffffffffffffff168173ffffffffffffffffffffffffffffffffffffffff1603610e7057826040517f7e273289000000000000000000000000000000000000000000000000000000008152600401610e679190612034565b60405180910390fd5b80915050919050565b60006004600083815260200190815260200160002060009054906101000a900473ffffffffffffffffffffffffffffffffffffffff169050919050565b600033905090565b610ecb838383600161173f565b505050565b610ed8610eb6565b73ffffffffffffffffffffffffffffffffffffffff16610ef6610a6a565b73ffffffffffffffffffffffffffffffffffffffff1614610f5557610f19610eb6565b6040517f118cdaa7000000000000000000000000000000000000000000000000000000008152600401610f4c9190611f1e565b60405180910390fd5b565b600080610f6384611702565b9050600073ffffffffffffffffffffffffffffffffffffffff168373ffffffffffffffffffffffffffffffffffffffff1614610fa557610fa4818486611904565b5b600073ffffffffffffffffffffffffffffffffffffffff168173ffffffffffffffffffffffffffffffffffffffff161461103657610fe760008560008061173f565b6001600360008373ffffffffffffffffffffffffffffffffffffffff1673ffffffffffffffffffffffffffffffffffffffff168152602001908152602001600020600082825403925050819055505b600073ffffffffffffffffffffffffffffffffffffffff168573ffffffffffffffffffffffffffffffffffffffff16146110b9576001600360008773ffffffffffffffffffffffffffffffffffffffff1673ffffffffffffffffffffffffffffffffffffffff168152602001908152602001600020600082825401925050819055505b846002600086815260200190815260200160002060006101000a81548173ffffffffffffffffffffffffffffffffffffffff021916908373ffffffffffffffffffffffffffffffffffffffff160217905550838573ffffffffffffffffffffffffffffffffffffffff168273ffffffffffffffffffffffffffffffffffffffff167fddf252ad1be2c89b69c2b068fc378daa952ba7f163c4a11628f55a4df523b3ef60405160405180910390a4809150509392505050565b61118460008261117f610eb6565b610f57565b5050565b6111a28282604051806020016040528060008152506119c8565b5050565b600073ffffffffffffffffffffffffffffffffffffffff168273ffffffffffffffffffffffffffffffffffffffff160361121757816040517f5b08ba1800000000000000000000000000000000000000000000000000000000815260040161120e9190611f1e565b60405180910390fd5b80600560008573ffffffffffffffffffffffffffffffffffffffff1673ffffffffffffffffffffffffffffffffffffffff16815260200190815260200160002060008473ffffffffffffffffffffffffffffffffffffffff1673ffffffffffffffffffffffffffffffffffffffff16815260200190815260200160002060006101000a81548160ff0219169083151502179055508173ffffffffffffffffffffffffffffffffffffffff168373ffffffffffffffffffffffffffffffffffffffff167f17307eab39ab6107e8899845ad3d59bd9653f200f220920489ca2b5937696c31836040516113089190611dad565b60405180910390a3505050565b6000600660009054906101000a900473ffffffffffffffffffffffffffffffffffffffff16905081600660006101000a81548173ffffffffffffffffffffffffffffffffffffffff021916908373ffffffffffffffffffffffffffffffffffffffff1602179055508173ffffffffffffffffffffffffffffffffffffffff168173ffffffffffffffffffffffffffffffffffffffff167f8be0079c531659141344cd1fd0a4f28419497f9722a3daafe3b4186f6b6457e060405160405180910390a35050565b6113ed6113e6610eb6565b83836111a6565b5050565b60008373ffffffffffffffffffffffffffffffffffffffff163b111561159b578273ffffffffffffffffffffffffffffffffffffffff1663150b7a02868685856040518563ffffffff1660e01b81526004016114509493929190612937565b6020604051808303816000875af192505050801561148c57506040513d601f19601f820116820180604052508101906114899190612998565b60015b611510573d80600081146114bc576040519150601f19603f3d011682016040523d82523d6000602084013e6114c1565b606091505b50600081510361150857836040517f64a0ae920000000000000000000000000000000000000000000000000000000081526004016114ff9190611f1e565b60405180910390fd5b805181602001fd5b63150b7a0260e01b7bffffffffffffffffffffffffffffffffffffffffffffffffffffffff1916817bffffffffffffffffffffffffffffffffffffffffffffffffffffffff19161461159957836040517f64a0ae920000000000000000000000000000000000000000000000000000000081526004016115909190611f1e565b60405180910390fd5b505b5050505050565b6060600980546115b19061238f565b80601f01602080910402602001604051908101604052809291908181526020018280546115dd9061238f565b801561162a5780601f106115ff5761010080835404028352916020019161162a565b820191906000526020600020905b81548152906001019060200180831161160d57829003601f168201915b5050505050905090565b606060006001611643846119ec565b01905060008167ffffffffffffffff81111561166257611661612172565b5b6040519080825280601f01601f1916602001820160405280156116945781602001600182028036833780820191505090505b509050600082602001820190505b6001156116f7578080600190039150507f3031323334353637383961626364656600000000000000000000000000000000600a86061a8153600a85816116eb576116ea6129c5565b5b049450600085036116a2575b819350505050919050565b60006002600083815260200190815260200160002060009054906101000a900473ffffffffffffffffffffffffffffffffffffffff169050919050565b80806117785750600073ffffffffffffffffffffffffffffffffffffffff168273ffffffffffffffffffffffffffffffffffffffff1614155b156118ac57600061178884610df1565b9050600073ffffffffffffffffffffffffffffffffffffffff168373ffffffffffffffffffffffffffffffffffffffff16141580156117f357508273ffffffffffffffffffffffffffffffffffffffff168173ffffffffffffffffffffffffffffffffffffffff1614155b801561180657506118048184610c6d565b155b1561184857826040517fa9fbf51f00000000000000000000000000000000000000000000000000000000815260040161183f9190611f1e565b60405180910390fd5b81156118aa57838573ffffffffffffffffffffffffffffffffffffffff168273ffffffffffffffffffffffffffffffffffffffff167f8c5be1e5ebec7d5bd14f71427d1e84f3dd0314c0f7b2291e5b200ac8c7c3b92560405160405180910390a45b505b836004600085815260200190815260200160002060006101000a81548173ffffffffffffffffffffffffffffffffffffffff021916908373ffffffffffffffffffffffffffffffffffffffff16021790555050505050565b61190f838383611b3f565b6119c357600073ffffffffffffffffffffffffffffffffffffffff168373ffffffffffffffffffffffffffffffffffffffff160361198457806040517f7e27328900000000000000000000000000000000000000000000000000000000815260040161197b9190612034565b60405180910390fd5b81816040517f177e802f0000000000000000000000000000000000000000000000000000000081526004016119ba9291906129f4565b60405180910390fd5b505050565b6119d28383611c00565b6119e76119dd610eb6565b60008585856113f1565b505050565b600080600090507a184f03e93ff9f4daa797ed6e38ed64bf6a1f0100000000000000008310611a4a577a184f03e93ff9f4daa797ed6e38ed64bf6a1f0100000000000000008381611a4057611a3f6129c5565b5b0492506040810190505b6d04ee2d6d415b85acef81000000008310611a87576d04ee2d6d415b85acef81000000008381611a7d57611a7c6129c5565b5b0492506020810190505b662386f26fc100008310611ab657662386f26fc100008381611aac57611aab6129c5565b5b0492506010810190505b6305f5e1008310611adf576305f5e1008381611ad557611ad46129c5565b5b0492506008810190505b6127108310611b04576127108381611afa57611af96129c5565b5b0492506004810190505b60648310611b275760648381611b1d57611b1c6129c5565b5b0492506002810190505b600a8310611b36576001810190505b80915050919050565b60008073ffffffffffffffffffffffffffffffffffffffff168373ffffffffffffffffffffffffffffffffffffffff1614158015611bf757508273ffffffffffffffffffffffffffffffffffffffff168473ffffffffffffffffffffffffffffffffffffffff161480611bb85750611bb78484610c6d565b5b80611bf657508273ffffffffffffffffffffffffffffffffffffffff16611bde83610e79565b73ffffffffffffffffffffffffffffffffffffffff16145b5b90509392505050565b600073ffffffffffffffffffffffffffffffffffffffff168273ffffffffffffffffffffffffffffffffffffffff1603611c725760006040517f64a0ae92000000000000000000000000000000000000000000000000000000008152600401611c699190611f1e565b60405180910390fd5b6000611c8083836000610f57565b9050600073ffffffffffffffffffffffffffffffffffffffff168173ffffffffffffffffffffffffffffffffffffffff1614611cf45760006040517f73c6ac6e000000000000000000000000000000000000000000000000000000008152600401611ceb9190611f1e565b60405180910390fd5b505050565b6000604051905090565b600080fd5b600080fd5b60007fffffffff0000000000000000000000000000000000000000000000000000000082169050919050565b611d4281611d0d565b8114611d4d57600080fd5b50565b600081359050611d5f81611d39565b92915050565b600060208284031215611d7b57611d7a611d03565b5b6000611d8984828501611d50565b91505092915050565b60008115159050919050565b611da781611d92565b82525050565b6000602082019050611dc26000830184611d9e565b92915050565b600081519050919050565b600082825260208201905092915050565b60005b83811015611e02578082015181840152602081019050611de7565b60008484015250505050565b6000601f19601f8301169050919050565b6000611e2a82611dc8565b611e348185611dd3565b9350611e44818560208601611de4565b611e4d81611e0e565b840191505092915050565b60006020820190508181036000830152611e728184611e1f565b905092915050565b6000819050919050565b611e8d81611e7a565b8114611e9857600080fd5b50565b600081359050611eaa81611e84565b92915050565b600060208284031215611ec657611ec5611d03565b5b6000611ed484828501611e9b565b91505092915050565b600073ffffffffffffffffffffffffffffffffffffffff82169050919050565b6000611f0882611edd565b9050919050565b611f1881611efd565b82525050565b6000602082019050611f336000830184611f0f565b92915050565b611f4281611efd565b8114611f4d57600080fd5b50565b600081359050611f5f81611f39565b92915050565b60008060408385031215611f7c57611f7b611d03565b5b6000611f8a85828601611f50565b9250506020611f9b85828601611e9b565b9150509250929050565b600060208284031215611fbb57611fba611d03565b5b6000611fc984828501611f50565b91505092915050565b600080600060608486031215611feb57611fea611d03565b5b6000611ff986828701611f50565b935050602061200a86828701611f50565b925050604061201b86828701611e9b565b9150509250925092565b61202e81611e7a565b82525050565b60006020820190506120496000830184612025565b92915050565b600080fd5b600080fd5b600080fd5b60008083601f8401126120745761207361204f565b5b8235905067ffffffffffffffff81111561209157612090612054565b5b6020830191508360018202830111156120ad576120ac612059565b5b9250929050565b600080602083850312156120cb576120ca611d03565b5b600083013567ffffffffffffffff8111156120e9576120e8611d08565b5b6120f58582860161205e565b92509250509250929050565b61210a81611d92565b811461211557600080fd5b50565b60008135905061212781612101565b92915050565b6000806040838503121561214457612143611d03565b5b600061215285828601611f50565b925050602061216385828601612118565b9150509250929050565b600080fd5b7f4e487b7100000000000000000000000000000000000000000000000000000000600052604160045260246000fd5b6121aa82611e0e565b810181811067ffffffffffffffff821117156121c9576121c8612172565b5b80604052505050565b60006121dc611cf9565b90506121e882826121a1565b919050565b600067ffffffffffffffff82111561220857612207612172565b5b61221182611e0e565b9050602081019050919050565b82818337600083830152505050565b600061224061223b846121ed565b6121d2565b90508281526020810184848401111561225c5761225b61216d565b5b61226784828561221e565b509392505050565b600082601f8301126122845761228361204f565b5b813561229484826020860161222d565b91505092915050565b600080600080608085870312156122b7576122b6611d03565b5b60006122c587828801611f50565b94505060206122d687828801611f50565b93505060406122e787828801611e9b565b925050606085013567ffffffffffffffff81111561230857612307611d08565b5b6123148782880161226f565b91505092959194509250565b6000806040838503121561233757612336611d03565b5b600061234585828601611f50565b925050602061235685828601611f50565b9150509250929050565b7f4e487b7100000000000000000000000000000000000000000000000000000000600052602260045260246000fd5b600060028204905060018216806123a757607f821691505b6020821081036123ba576123b9612360565b5b50919050565b60006060820190506123d56000830186611f0f565b6123e26020830185612025565b6123ef6040830184611f0f565b949350505050565b7f4f6e6c7920746865206f776e6572206f7220617574686f72697a656420436f6e60008201527f74726163742063616e206275726e000000000000000000000000000000000000602082015250565b6000612453602e83611dd3565b915061245e826123f7565b604082019050919050565b6000602082019050818103600083015261248281612446565b9050919050565b7f4f6e6c7920746865206f776e6572206f7220617574686f72697a656420436f6e60008201527f74726163742063616e206d696e74000000000000000000000000000000000000602082015250565b60006124e5602e83611dd3565b91506124f082612489565b604082019050919050565b60006020820190508181036000830152612514816124d8565b9050919050565b7f4e487b7100000000000000000000000000000000000000000000000000000000600052601160045260246000fd5b600061255582611e7a565b91507fffffffffffffffffffffffffffffffffffffffffffffffffffffffffffffffff82036125875761258661251b565b5b600182019050919050565b600061259d82611e7a565b91506125a883611e7a565b92508282039050818111156125c0576125bf61251b565b5b92915050565b600082905092915050565b60008190508160005260206000209050919050565b60006020601f8301049050919050565b600082821b905092915050565b6000600883026126337fffffffffffffffffffffffffffffffffffffffffffffffffffffffffffffffff826125f6565b61263d86836125f6565b95508019841693508086168417925050509392505050565b6000819050919050565b600061267a61267561267084611e7a565b612655565b611e7a565b9050919050565b6000819050919050565b6126948361265f565b6126a86126a082612681565b848454612603565b825550505050565b600090565b6126bd6126b0565b6126c881848461268b565b505050565b5b818110156126ec576126e16000826126b5565b6001810190506126ce565b5050565b601f82111561273157612702816125d1565b61270b846125e6565b8101602085101561271a578190505b61272e612726856125e6565b8301826126cd565b50505b505050565b600082821c905092915050565b600061275460001984600802612736565b1980831691505092915050565b600061276d8383612743565b9150826002028217905092915050565b61278783836125c6565b67ffffffffffffffff8111156127a05761279f612172565b5b6127aa825461238f565b6127b58282856126f0565b6000601f8311600181146127e457600084156127d2578287013590505b6127dc8582612761565b865550612844565b601f1984166127f2866125d1565b60005b8281101561281a578489013582556001820191506020850194506020810190506127f5565b868310156128375784890135612833601f891682612743565b8355505b6001600288020188555050505b50505050505050565b600081905092915050565b600061286382611dc8565b61286d818561284d565b935061287d818560208601611de4565b80840191505092915050565b7f2e6a736f6e000000000000000000000000000000000000000000000000000000815250565b60006128bb8285612858565b91506128c78284612858565b91506128d282612889565b6005820191508190509392505050565b600081519050919050565b600082825260208201905092915050565b6000612909826128e2565b61291381856128ed565b9350612923818560208601611de4565b61292c81611e0e565b840191505092915050565b600060808201905061294c6000830187611f0f565b6129596020830186611f0f565b6129666040830185612025565b818103606083015261297881846128fe565b905095945050505050565b60008151905061299281611d39565b92915050565b6000602082840312156129ae576129ad611d03565b5b60006129bc84828501612983565b91505092915050565b7f4e487b7100000000000000000000000000000000000000000000000000000000600052601260045260246000fd5b6000604082019050612a096000830185611f0f565b612a166020830184612025565b939250505056fea26469706673582212207ee75a97592e14470afe7ed6663779f24bcd588d18cd39bb900aa6e38d2a366564736f6c634300081c0033",
  "linkReferences": {},
  "deployedLinkReferences": {}
}